:020000040800F2
:100000000000052099020008E5020008E50200084A
:10001000E5020008E5020008E50200080000000013
:10002000000000000000000000000000E5020008E1
:10003000E502000800000000E50200085105000884
:10004000E5020008E5020008E5020008E5020008F4
:10005000E5020008E5020008E5020008E5020008E4
:10006000E5020008E5020008E5020008E5020008D4
:10007000E5020008E5020008E5020008E5020008C4
:10008000E5020008E50200084D060008E502000848
:10009000E5020008E5020008E5020008E5020008A4
:1000A000E5020008E5020008E5020008E502000894
:1000B000E5020008E5020008E5020008E502000884
:1000C000E5020008E5020008E5020008E502000874
:1000D000E5020008E5020008E50200082510000816
:1000E000E5020008E5020008E5020008E502000854
:1000F000E5020008E5020008E5020008E502000844
:10010000E5020008E5020008E5020008E502000833
:10011000E5020008E5020008E5020008E502000823
:10012000E5020008E5020008E5020008E502000813
:10013000E5020008E5020008E5020008E502000803
:10014000E5020008E5020008E5020008E5020008F3
:10015000E5020008E5020008E5020008E5020008E3
:10016000E5020008E5020008E5020008E5020008D3
:10017000E5020008E5020008E502000800000000B2
:10018000E5020008E5020008E5020008E5020008B3
:10019000E5020008E5020008E5020008E5020008A3
:1001A000E5020008E5020008E5020008E502000893
:1001B000E5020008E5020008E5020008E502000883
:1001C000E5020008E502000800B5034661F30F21CF
:1001D00061F31F4112F0010F04D0197003F1010304
:1001E000A2F1010212F0020F04D0198003F1020300
:1001F000A2F10202002A04D0196003F10403043AB8
:10020000FAD100BD002A08BF704701B5202A20D2CC
:1002100012F0010F07D00B78037000F1010001F11B
:100220000101A2F1010212F0020F07D00B88038036
:1002300000F1020001F10201A2F10202002A07D03E
:100240000B68036000F1040001F10401043AF7D1E6
:1002500001BD80EA010313F0030FD9D110F0010FA3
:1002600007D00B78037000F1010001F10101A2F148
:10027000010210F0020F07D00B88038000F102008A
:1002800001F10201A2F1020270B478C978C0103AFB
:10029000102AFAD270BCBBE7DFF830D0002103E0AF
:1002A0000B4B5B58435004310A480B4B42189A429F
:1002B000F6D30A4A02E0002342F8043B084B9A4274
:1002C000F9D301F001FF00F015F870470000052098
:1002D000582300080000002008000020080000202B
:1002E00008430020FEE70000014800F0C7BB00BF44
:1002F0001421000880B594B0BFF34F8FBFF36F8F08
:100300007E4B0021C3F850125A6942F400325A6100
:10031000BFF34F8FBFF36F8FC3F88410D3F88020E3
:10032000C2F34E3102F00705C2F3C902B2FA82F6F7
:10033000043506F01F06BFF34F8F01FA05FE104685
:1003400000FA06F747EA0E0710F1FF306B4CC3F8CE
:100350006072F5D211F1FF31EFD2BFF34F8F6369B5
:1003600043F480336361BFF34F8FBFF36F8F636AD2
:10037000634E23F480336362736823F00103736078
:10038000604B099311238DF82830032301258DF844
:100390002B3008A800238DF82F308DF82D308DF8E4
:1003A00021308DF82A308DF829308DF82C308DF8D9
:1003B00020508DF82E5001F007FA05237360636A10
:1003C00043F48033636200F065FF4FF480334FF4F1
:1003D000800209930F92022308220E931092129327
:1003E0004FF4D872092308A808951192139301F0CD
:1003F00033FB10B1444800F09DF901F0F5FA10B15B
:10040000424800F097F90F2303930223049300233B
:1004100005934FF4A053069307214FF4805303A88C
:10042000079301F0EFFC10B1394800F083F9394B24
:1004300039481A6B42F008021A631A6B02F008027C
:100440000292029A1A6C42F480221A641B6C03F422
:1004500080230393022401250726039B09944FF46C
:10046000807308A908930A950B940C9601F0D2F9B1
:100470004FF4007308A92848089309940A950B942F
:100480000C9601F0C7F900F0ADFD2946234800F0B5
:1004900055FC23492148002200F04BFC214B224807
:1004A00080225A6000F0EAFA2049214A2148930A42
:1004B0000A4400F0E3FA2049204A2148930A0A44FA
:1004C00000F0DCFA01F0BAFD044601F0D1FD05466A
:1004D00001F0E4FD064601F073FD33462A4621464D
:1004E0000090184800F0CAFA174800F0C7FA00F068
:1004F00031F8164800F0C2FA30BFFDE700ED00E029
:1005000090ED00E0000001201E2100082D210008D0
:100510003721000800380240000C0240EC3E002069
:10052000E902000800E100E04321000800000008A3
:10053000000010005B210008000000200000050002
:100540007B2100089B210008F721000805220008F4
:1005500000F0B2BEF0B53148314C8DB000F08EFAEB
:10056000304B31485A6C42F480625A645A6C02F43F
:1005700080620192019A1A6B42F020021A631B6B8F
:1005800003F0200302930025029B09951023032703
:1005900007A90793089701F03DF9244AA5604FF495
:1005A0004033012684E80C002046214BE56025619C
:1005B0006561A661E66126626562A562E362256304
:1005C00000F08AFE18B11B4800F058FAFEE70E232F
:1005D00003930690062303A920460496059300F092
:1005E000F3FF024618B1144800F048FAFEE7394616
:1005F000122001F093F8122001F0C4F80F4800F027
:100600003DFA0F4A9FED0F0A0F484FF47A6100F050
:10061000FAFD204600F0FCFE0DB0F0BD18220008E7
:10062000983E0020003802400014024000220140A1
:100630000100000F2422000832220008482200088E
:10064000100000209A99193EDC3E0020014800F07D
:1006500041BF00BF983E0020016C024808B500F081
:100660000DFAFEE7572200082DE9F0472DED028B29
:1006700084B000F02BFF274E274D336827492A68A6
:10068000274F284CA0F5006080B221F8130000B27B
:1006900002442A60B7F900208242A8BF02463A808D
:1006A000B4F9002001339042B8BF1046B3F57A6F19
:1006B0002080336029D31C4800F0BCFD1A48D5F8CF
:1006C0000080B7F90090B4F900A0B0EE408A00F0C5
:1006D000CBFDDFED167A20EE270ABDEEC88ABDEE0F
:1006E000C00A53468DED020A8DED018A4FF47A60FF
:1006F0004A4698FBF0F0414600900D4800F0BEF9E4
:1007000000232B6033603B80238004B0BDEC028B60
:10071000BDE8F087903E00200C000020501F002014
:10072000080000200A000020DC3E00200000C84233
:10073000672200080FB437B506AC0A4854F8045BCA
:1007400000F035FA0121074800F0FEFA064800F0F3
:1007500095F928462146019400F09EF9034800F0DF
:100760008DF9FEE7EC3E0020A12200085921000887
:100770002DE9F041941E222C069D05D915F00205A5
:1007800057D10D70BDE8F0812B4E2C4C15F0200F89
:1007900014BFB646A64615F0040F0CBF4FF0300844
:1007A0004FF020084E1C0027B0FBF2FC344600B985
:1007B00037B90CFB12001EF8000006F8010C01E02E
:1007C00006F8018C0137BCF1000F03D01BB90136CC
:1007D0006046E9E70BB19F42F9DBE80611D5102A24
:1007E00006D13446782304F8023B3023737008E0C6
:1007F000082A01D1302302E0022A02D16223337099
:10080000741CEA0701D52D2302E02B0702D52B2308
:100810002370013415F0020504F1FF3300D1257077
:100820008B4206D91A78087803F8010901F8012BE0
:10083000F6E7BDE8F08100BFB2220008D722000829
:1008400003461A78591C0AB10B46FAE7181A704782
:100850002DE9F04F4FF0000ADFF81CB28DB00446CE
:100860000D46164688464FF00409574615F8011BF9
:10087000002900F0E580002F00F0BF80632900F020
:10088000818018D839290BD830292AD2252924D09B
:100890002B2936D0232940F09F8049F01009CDE064
:1008A00058294BD0622940F09780371DCDF8009031
:1008B000534602224FE070293BD007D8692923D044
:1008C0006F2943D0642940F087801DE075292AD024
:1008D000782935D073297FD164E0FF2C7FDD21702A
:1008E00087E004D1BAF1000F01D129F004093039B1
:1008F0000A2303FB0A1ABAF1230F28BF4FF0230A79
:100900009CE049F0080999E030680028B8BF49F038
:10091000010906F10407B8BF4042CDF800905346E4
:100920000A2203A919E0371DCDF8009053460A2288
:1009300011E0371DCDF80090082305E049F02009AB
:10094000371DCDF800905346102204E0371DCDF836
:10095000009053460822306803A9FFF709FFFF2CD7
:1009600003A80ADDFFF76CFF03A9064602462046EE
:10097000FFF748FC34443E4637E0FFF761FF03A928
:1009800082B218E0FF2C06F10407316807DC4FF44F
:100990008360C9B200FB04B000F02DF9EBE72170D1
:1009A0003E4626E0371D3668FF2C30460ADCFFF74E
:1009B00047FF314682B24FF4836000FB04B000F081
:1009C00050F9D8E7FFF73CFF314680460246204603
:1009D000FFF718FC4444CEE7FF2C08DC3F214FF41E
:1009E000836000FB04B000F006F9A84603E03F2353
:1009F0002370A8460134002738E725297FF436AF55
:100A000008F101039D4216D9FF2CC8EB05090ADC49
:100A100009F1FF324FF4836092B2414600FB04B00B
:100A200000F01FF907E009F1FF3920464A46414628
:100A3000FFF7E8FB4C444FF00409BA46012715E7DD
:100A400008F101039D4213D9C8EB0502FF2C02F106
:100A5000FF3209DC084B4FF4836092B2414600FB41
:100A6000043000F0FEF803E041462046FFF7CAFBE1
:100A70000DB0BDE8F08F00BFEC3E00200FB407B50D
:100A800004AA002052F8041B0192FFF7E1FE03B014
:100A90005DF804EB04B070470A4601460020FFF7FA
:100AA000D7BE036810B50446002B59D0DA6990060A
:100AB00020D51A6891061DD5596AB4F8042292B25D
:100AC000501C2244C9B280B2A4F804021171B4F8D7
:100AD000042292B2B2F5007F24BF0022A4F80422BF
:100AE0009A6942F008029A61D4F80C3413B1D4F830
:100AF000100498472368DA69120631D594F8150472
:100B000050BBB4F80814B4F80A2489B292B29142E6
:100B100012D0B4F80A2492B2511C89B22244A4F82B
:100B20000A1492F808229A62B4F80A2492B2B2F532
:100B3000007F28BFA4F80A04B4F80814B4F80A2403
:100B400089B292B291420BD11A6822F080021A60E7
:100B50001A6822F080021A601A6822F040021A60B5
:100B600010BDB0F80A3482B09BB2ADF80430B0F8D2
:100B700008349BB2ADF80630BDF80620BDF804304D
:100B8000BDF8040092B29BB29A4280B2BDF8063022
:100B90008CBF00F2FF1000F1FF30C01A80B202B02B
:100BA00070470368DA691206FCD5996270470268DB
:100BB000136823F0200370B51360B0F80A44B0F84E
:100BC00008640546A4B2B6B2B4420CD02B1928462C
:100BD00093F80812FFF7E5FFB4F5FF7F9ABF0134E1
:100BE000A4B20024F0E72A68A5F80A44136843F089
:100BF0002003136070BD70B590F8153404460E469E
:100C00001BB1FFF7CEFF002070BD4FF480351946B1
:100C10002046FFF7A6FF90B1B4F808349BB25A1CE7
:100C2000234492B2A4F8082483F80862B4F8083484
:100C30009BB2B3F5007F05D3A4F8081402E04FF08F
:100C4000FF3000E000202268136843F08003136047
:100C500094F8143423B118B1013DD9D14FF0FF30CD
:100C600070BD2DE9F047044690F815040F469146F3
:100C700058B18D18AF4205D017F8011B2046FFF779
:100C8000BAFFF7E74846BDE8F087064682462046A9
:100C9000FFF767FFC6EB0908404528BF404608B18B
:100CA000804605E02268D3691B06FCD54FF0010899
:100CB000B4F80854ADB2C5F50075A8450FD9B4F81D
:100CC000080480B200F502702A4639462044FFF736
:100CD00099FA2F44A4F808A4C5EB080500E045469E
:100CE000B4F8080480B200F502702A463946204460
:100CF000FFF788FAB4F8083422682F4415FA83F510
:100D0000ADB2A4F80854B4F808349BB2B3F5007F30
:100D100028BFA4F808A4136843F08003136094F874
:100D20001434464413B93046BDE8F087B145AED817
:100D3000F9E7C0F80C14C0F810247047034690F887
:100D4000140483F814147047034690F8150483F8CC
:100D500015147047F8B504689DF818709DF81CE0EC
:100D60000E46216821F0010121609DF82010054602
:100D7000002900F00B8122B1092A40F019814FF4BB
:100D80008052032B00F21481DFE803F0080802050B
:100D90004FF4405003E04FF4005000E00020012FDA
:100DA00006D008D3022F40F003814FF4C06703E060
:100DB0004FF4806700E000270023BEF1030F00F22C
:100DC000F780DFE80EF00B0502084FF4007106E033
:100DD0004FF4807103E04FF4407100E00021236084
:100DE0006360A360D4F800E0724B0EEA030343F49F
:100DF000004343F00C031A433A432260636823F430
:100E0000405318436060636823F480436360A368C1
:100E100023F430631943684BA1609C4207D103F56A
:100E20009433664AD3F8903003F0030309E0644B2F
:100E30009C4211D103F5FA33624AD3F8903003F0A3
:100E40000C03D35C082B00F2B380DFE803F0767963
:100E50007CB17EB1B1B182005B4B9C420CD103F5F9
:100E6000F833D3F8903003F03003102B6DD05BD9FA
:100E7000202B68D0302B5EE0544B9C420CD103F504
:100E8000F633D3F8903003F0C003402B5DD04BD93C
:100E9000802B58D0C02B4EE04D4B9C420FD103F518
:100EA000F433D3F8903003F44073B3F5807F4CD023
:100EB0003AD9B3F5007F46D0B3F5407F3BE0454BD0
:100EC0009C4211D103F59233D3F8903003F4406380
:100ED000B3F5806F39D001D893B369E0B3F5006FF3
:100EE00031D0B3F5406F26E03B4B9C420FD103F568
:100EF000E033D3F8903003F44053B3F5805F24D04F
:100F000012D9B3F5005F1ED0B3F5405F13E0334B49
:100F10009C424DD103F5DE33D3F8903003F44043C7
:100F2000B3F5804F11D001D83BB141E0B3F5004F8C
:100F300009D0B3F5404F0CD03AE001F099F806E043
:100F400001F0ACF803E0264805E001F039F8400074
:100F500001E04FF48030B0FBF6F189B221F00F03CD
:100F6000C1F3420119432B68D9601A6842F040026C
:100F70001A601A6842F080021A601A6842F0200271
:100F80001A601A6842F001021A600FE0236823F029
:100F900040032360236823F080032360236823F049
:100FA00020032360236823F0010323600120F8BDA0
:100FB0000020F8BDF369FFEF001001403223000864
:100FC000004400403623000800480040004C004028
:100FD000005000400014014000780040007C0040B8
:100FE0000048E8011FB50D4C4FF4836200212046F4
:100FF000FFF7EAF80A4B23600022012302930192D3
:1010000000924FF4E1312046FFF7A4FE22681368F6
:1010100023F08003136004B010BD00BFEC3E00203D
:10102000004800400148FFF73CBD00BFEC3E0020F7
:10103000F0B5B0F90260002213B29E421ADD9700AB
:1010400000252CB2B44213DA31F9143014440135BE
:1010500031F914401B1B07EE903A43683B4493ED73
:10106000007AF8EEE77AA7EEA77A83ED007AE8E750
:101070000132E1E7F0BD000041689FED107A10B544
:101080004FF07E53B0F902400B60012213B2A3422D
:1010900012DA01EB830090ED006A07EE903A37EE2A
:1010A000067AF8EEE77A0132C7EE876A92B266EE08
:1010B000867AC0ED007AE9E710BD00BF00000000AD
:1010C00030B5B0F90240082102231AB2A2422CDA4C
:1010D0004268D0ED037A551895ED007AB4EEE77AC0
:1010E000F1EE10FA01F104011CD51DB2691CA142F8
:1010F0000ADB02EB850292ED007AF7EE007A77EEDA
:10110000C77AC0ED027A10E002EB810191ED007A1E
:1011100051ED017AB4EEE77AF1EE10FAE9D5013338
:101120009BB2E2E701339BB2CFE719B2A1420BD0E9
:101130004268D0ED037A02EB810292ED007AB4EEC0
:10114000E77AF1EE10FA03DB002383604FF6FF73BA
:1011500018B230BD0029B0F90220C8BF01F1FF3339
:1011600010B501F10104CCBF1BB20B46944242689A
:101170004FEA830044DA8B4224B20DD12146104459
:1011800002EB810290ED007AD2ED007AB4EEE77ABC
:10119000F1EE10FA0ED810E0A14213D102EB810457
:1011A000024494ED007AD2ED007AB4EEE77AF1EEE3
:1011B00010FA02D807EE901A01E007EE903AB8EE66
:1011C000E70A10BD104402EB840402EB810290EDAB
:1011D000007AD4ED007AD2ED005AB0EE006A77EED4
:1011E000C76AD5EE867A77EEC77A37EEA77AC6EE6B
:1011F000877A07EE101AB8EEC70A37EE800A10BDDC
:101200008B42BCD0CAE710B50223018091FBF3F1F9
:10121000002389B24180836080ED030A426009B2F5
:10122000002004B2A14203DD42F8043B0130F8E79C
:1012300010BD000010B50446FFF7FAFEFFF71CFFD3
:101240002046FFF73DFF431C014607D02046FFF72D
:1012500081FFDFED047A87EE800A10BDBFEE000A41
:1012600010BD00BF001B374790ED020A7047704762
:1012700010B5044600F0E2FE4FF47A73B0FBF3F0D1
:1012800000F08CFA002221464FF0FF3000F046FAC1
:10129000002010BD074A08B5136843F400731360BB
:1012A000032000F029FA0F20FFF7E2FFFFF7DFFF2E
:1012B000002008BD003C0240024A1368013313605D
:1012C000704700BF943E0020014B1868704700BF74
:1012D000943E00207047000010B50446002800F03E
:1012E000918090F83D3003F0FF021BB980F83C205C
:1012F000FFF7F0FF022384F83D30434B5A6822F495
:1013000040325A60596862680A435A60236821690A
:101310005A68E06A22F480725A605A6842EA0122EE
:101320005A605A6822F040725A605968A2680A43AB
:101330005A609A6822F400629A609968E2680A43E7
:101340009A60324A90420ED0996821F0706199609B
:101350009A6802439A609A6822F040529A609968AB
:10136000226B0A4306E09A6822F070629A609A68DB
:1013700022F040529A609A68A16922F002029A60B3
:101380009A6842EA41029A60626A9AB15A6842F4E3
:1013900000625A605A6822F460425A604FF4604218
:1013A00092FAA2F2B2FA82F1A26A5868013A8A402D
:1013B000024302E05A6822F400625A60DA6A22F4B8
:1013C0007002DA62226AD96A013A41EA0252DA62AA
:1013D0009A68E16922F400729A609A6842EA4122AE
:1013E0009A609A68616922F480629A609A6842EA17
:1013F00081229A6000200123206484F83C0084F854
:101400003D3010BD012010BD002301400100000F40
:1014100082B00023019390F83C30012B48D0012387
:1014200080F83C3090F83D300268222B0CBF32230C
:10143000122380F83D30002303649368DB0710D546
:1014400053681E4943F080635360536843F02003A0
:101450005360002380F83C30486810F01F0012D021
:101460001AE09368164943F001039360154B1B681B
:10147000B3FBF1F303EB43030193019B002BDFD09C
:10148000019B013BF8E7936813F0405313D1916837
:1014900041F0804191600DE00B498A420AD1906889
:1014A00010F0405006D1936843F08043936002E00F
:1014B000022000E0184602B0704700BF0023014040
:1014C00040420F0000000020002001400368D86C5B
:1014D00070477047036819685A68890710B5044651
:1014E00029D5900627D594F83D20252A0CBF352212
:1014F000152284F83D20A269B2B99A6812F0405FC3
:1015000012D1626942B1626B0AB9226A6263626B8C
:10151000013A6263626B3AB95A6822F020025A605B
:101520005A6822F080625A602046FFF79DF82368CF
:101530006FF002021A60236819685A6849071DD5BE
:1015400012061BD594F83D20A069152A0CBF352240
:10155000252284F83D2059689A6802F4401208B1A7
:10156000480504D41AB95A6822F080025A6020460D
:1015700000F0C0F823686FF004021A60236819684D
:101580005A68C9070AD5500608D5062284F83D20B6
:101590006FF001021A602046FFF79BFF236819686D
:1015A0005A6889060ED552010CD5042284F83D20D4
:1015B000226C42F0010222646FF020021A60204681
:1015C000FFF74AF810BD0000F7B50023019390F82B
:1015D0003C30012B69D00D6804688F680123092D08
:1015E00080F83C30AEB210D906EB4602D4F80CE0DD
:1015F000A2F11E0307229A402EEA0202E260E2688C
:1016000007FA03F31343E3600EE0226905EB450399
:101610004FF0070E0EFA03FE22EA0E022261226943
:1016200007FA03F3134323614B68062B4FEA830247
:101630000DD81344676B591F1F238B4027EA030300
:101640006363626B06FA01F1114361631DE00C2BC9
:101650000ED81344216BA3F123021F23934021EAE8
:1016600003032363236B06FA02F21A4322630CE09E
:101670001344E76A413B1F229A4027EA0202E262D2
:10168000E16A06FA03F20A43E262164B9C4204D076
:10169000002380F83C30184622E0122D07D1124A70
:1016A000536843F48003536001E0022018E0A5F181
:1016B0001003012BECD80C4A5368102D43F400039F
:1016C0005360E5D1094B0A4A1B68B3FBF2F20A23C7
:1016D00053430193019B002BDAD0019B013BF8E7B8
:1016E00003B0F0BD002001400023014000000020B5
:1016F00040420F0070470000074AD36823F4E063BC
:101700001B041B0C43F0BF6343F4003300F00700DD
:1017100043EA0023D360704700ED00E0174BDB681D
:10172000C3F3022330B5C3F107041D1D042C28BFE9
:101730000424062D4FF0010505FA04F404F1FF34EA
:101740008CBF033B00230C409C4005FA03F3013B94
:101750001A40002842EA04024FEA0212AFBF00F129
:10176000604000F00F00064BD2B2A5BF00F561400B
:10177000D2B21A5480F8002330BD00BF00ED00E063
:1017800014ED00E04209012300F01F0003FA00F00D
:10179000014B43F82200704700E100E00138B0F14E
:1017A000807F0AD2064B074A5860F02182F8231046
:1017B0000020072298601A6070470120704700BF20
:1017C00010E000E000ED00E0114943788B60037801
:1017D000DBB14368CB60C37A027B1B0643EA02732A
:1017E00002781343827A43EAC243427B43EA82434C
:1017F000827B43EA4243C27B43EA0243427A43EAA2
:101800000223027A43EA420300E0CB600B61704797
:1018100090ED00E02DE9F04F6F4E0B68DFF8C0C18E
:10182000DFF8C08185B0B646019300230122019CF8
:101830009A4032EA040440F0C7804C6824F0100952
:10184000B9F1020F14D14FEAD30A00EB8A0A03F070
:10185000070BDAF820704FEA8B0B0F2505FA0BF512
:1018600027EA05050F6907FA0BF72F43CAF820701E
:101870004FEA430A0325076805FA0AF5ED4304F029
:10188000030B2F400BFA0AFB09F1FF394BEA07075C
:10189000B9F1010F076012D8876805EA0709CF6818
:1018A00007FA0AF747EA090787604768C4F300198F
:1018B00027EA020709FA03F949EA07074760C768F8
:1018C0003D408F6807FA0AF73D43C560E5007BD5C8
:1018D000DCF8445045F48045CCF84450DCF84450E2
:1018E00023F0030707F1804705F4804507F59C378F
:1018F000039503F0030A039DD7F808B04FF00F09D2
:101900004FEA8A0A09FA0AF52BEA0509334DA8427B
:1019100024D005F58065A84222D005F58065A8424F
:1019200020D005F58065A8421ED005F58065A84247
:101930001CD040451CD005F50065A8421AD005F51D
:101940008065A84218D005F58065A84216D005F537
:101950008065A84214BF0A25092510E000250EE085
:1019600001250CE002250AE0032508E0042506E035
:10197000052504E0062502E0072500E0082505FA14
:101980000AF545EA0905BD603568D74314F4803F80
:101990000CBF3D401543CEF80050DEF8045014F45F
:1019A000003F0CBF3D4015437560B56814F4801FBF
:1019B0000CBF3D401543CEF80850DEF80C50A40291
:1019C00054BF3D401543F5600133102B7FF42EAF1B
:1019D00005B0BDE8F08F00BF003C014000000240B0
:1019E0000038024000140240194B1A6C73B542F0E3
:1019F00080521A641B6C174C03F080530193019BB7
:101A0000236843F480332360FFF75EFC25460646D7
:101A10006B68104CDA0307D4FFF756FC801BB0F557
:101A20007A7FF5D9032011E0236843F40033236063
:101A3000FFF74AFC054663689B0306D4FFF744FCA6
:101A4000401BB0F57A7FF6D9ECE7002002B070BDFC
:101A5000003802400070004003682DE9F341DD07C3
:101A6000044603D42368980770D4C3E0A34B9A6854
:101A700002F00C02042A07D09A6802F00C02082A2D
:101A80000BD15B68590208D59C4B1B689A03E9D5BA
:101A90006368002BE6D10120AFE1984D2B6823F459
:101AA00080332B602B6823F480232B602B6823F476
:101AB00080332B60FFF708FC2E46074633688F4DB6
:101AC0009B0307D5FFF700FCC01BB0F5FA7FF5D9E3
:101AD000032092E12B6823F480332B606368B3F515
:101AE000803F03D12B6823F4802305E0B3F5A02FBA
:101AF00008D12B6843F480232B602B6843F4803398
:101B00002B6008E02A6822F480222A602A6822F4E6
:101B100080322A606BB1FFF7D7FB784D06462B6801
:101B20009F039FD4FFF7D0FB801BB0F5FA7FF6D957
:101B3000CEE7FFF7C9FB06462B68980392D5FFF75F
:101B4000C3FB801BB0F5FA7FF6D9C1E76B4B9A68EF
:101B500012F00C0F07D09A6802F00C02082A17D175
:101B60005B68590214D4654B1A68920702D5E26883
:101B7000012A90D11A68F82191FAA1F12069B1FAED
:101B800081F100FA01F122F0F8020A431A6031E013
:101B9000E3685A4DF3B12B6843F001032B60FFF764
:101BA00093FB06462B6855489F0705D4FFF78CFB2F
:101BB000801B6428F6D98BE70368F82292FAA2F218
:101BC0002169B2FA82F201FA02F223F0F803134318
:101BD00003600FE02B6823F001032B60FFF774FB19
:101BE00006462B68990705D5FFF76EFB801B642816
:101BF000F7D96DE723681A0703D423685B0767D515
:101C000022E063693D4D7BB16B6F43F001036B676D
:101C1000FFF75AFB06466B6F9F07EED4FFF754FBA6
:101C2000801B6428F7D953E76B6F23F001036B67C0
:101C3000FFF74AFB06466B6F9807DED5FFF744FBBC
:101C4000801B6428F7D943E72C4B2D4D1A6C42F0CA
:101C500080521A641B6C03F080530193019B2B6824
:101C600043F480732B60FFF72FFB06462B68D905E2
:101C700031D5224D2B6F23F001032B672B6F23F0FF
:101C800004032B672B6F23F001032B67FFF71CFB6B
:101C90002E46074641F28838336F184D9A0720D4F4
:101CA0002B6F23F001032B67A368012B1FD12B6F30
:101CB00023F004032B672B6F43F001032B67FFF71F
:101CC00003FB0E4D064641F288372B6F9B0723D549
:101CD000A269AABB77E0FFF7F7FA801B6428C5D991
:101CE000F6E6FFF7F1FAC01B4045D5D9F0E6052B23
:101CF00008D12B6F43F00403DCE700BF003802403B
:101D0000007000402A6F22F004022A672A6F22F036
:101D100001022A6733B1D2E7FFF7D6FA801BB84237
:101D2000D3D9D5E6FFF7D0FA41F2883706462B6FB4
:101D30009807CDD5FFF7C8FA801BB842F7D9C7E698
:101D40002F4DAB6803F00C03082B3FF4A4AE2B68B7
:101D5000022A23F080732B6043D1FFF7B5FA0746C0
:101D60002B68274E990130D447F6C07292FAA2F23E
:101D70004FF44033B2FA82F093FAA3F34FF070625B
:101D8000B3FA83F592FAA2F2236AE769B2FA82F112
:101D9000626A1F4347F00053824043EA0200A36A8D
:101DA0005A08013A02FA05F3E26A03438A401343F0
:101DB0007360336843F080733360FFF785FA04463D
:101DC00033689A0107D5002017E0FFF77DFAC01BA2
:101DD0006428C5D97CE6FFF777FA001B6428EFD9A1
:101DE00076E6FFF771FA04462B689B01EBD5FFF707
:101DF0006BFA001B6428F7D96AE602B0BDE8F081EF
:101E0000003802406C4A136803F00F038B422DE93F
:101E1000F04104460D4666D2136823F00F030B43CE
:101E20001360136803F00F03994202D00120BDE84C
:101E3000F08101688F0706D56048836823F0F002BF
:101E4000A36813438360CE070BD421684D0740F18C
:101E5000A3805A48836823F4E052E3681343836005
:101E60009AE06268554B012A196802D111F4003FCB
:101E700006E0022A02D111F0007F01E011F0020F0A
:101E8000D4D099684D4E21F003010A439A60FFF7C0
:101E90001BFA6368012B054641F288370CD1B36801
:101EA00003F00C03042BD0D0FFF70EFA401BB8420E
:101EB000F5D90320BDE8F081022B0FD1B36803F000
:101EC0000C03082BC1D0FFF7FFF9401BB842F5D92E
:101ED000EFE7FFF7F9F9401BB842EAD8B36813F00F
:101EE0000C0FF6D1B1E70168880706D5334883683F
:101EF00023F0F002A36813438360CA070BD42E4A71
:101F0000136823F00F032B431360136803F00F03D0
:101F10009D428BD199E76268284B012A196802D14A
:101F200011F4003F06E0022A02D111F0007F01E027
:101F300011F0020F3FF47AAF9968204F21F00301AE
:101F40000A439A60FFF7C0F96368012B064641F225
:101F500088380AD1BB6803F00C03042BCFD0FFF7FD
:101F6000B3F9801B4045F5D9A3E7022B0FD1BB681D
:101F700003F00C03082BC2D0FFF7A6F9801B4045E5
:101F8000F5D996E7FFF7A0F9801B404591D8BB68CB
:101F900013F00C0FF6D1B2E70B0707D5074A2169FA
:101FA000936823F4604343EAC10393600F20FFF773
:101FB0005FF90020BDE8F081003C0240003802409B
:101FC0001B498B6803F00C03042B2CD0082B2CD15D
:101FD00048684B6800F03F0013F4800F47F6C0726A
:101FE0004B6892FAA2F247F6C071B2FA82F201EAA5
:101FF000030121FA02F114BF0E4A0F4AB2FBF0F0BE
:102000000B4A00FB01F352684FF4403090FAA0F005
:1020100002F44032B0FA80F022FA00F001304000C1
:10202000B3FBF0F07047034870470348704700BFA8
:102030000038024000127A000024F40008B5FFF7CF
:10204000BFFF084BF0229B6892FAA2F2B2FA82F22A
:1020500003F0F003D340044AD35CD840034B18602C
:1020600008BD00BF003802404323000800000020E4
:1020700008B5FFF7E3FF074B4FF4E0529B6892FA75
:10208000A2F2B2FA82F203F4E053D340024AD35CE4
:10209000D84008BD003802404323000808B5FFF7C8
:1020A000CDFF074B4FF460429B6892FAA2F2B2FA5E
:1020B00082F203F46043D340024AD35CD84008BDA7
:1020C00000380240432300080F49D1F8883043F418
:1020D0007003C1F888300D4B1A68002042F00102ED
:1020E0001A6098601A6822F0847222F480321A60B2
:1020F000074A5A601A6822F480221A60D8604FF0AA
:1021000000638B60704700BF00ED00E000380240C4
:042110001030002467
:10211400676F743A253032780A00524343206F7354
:102124006320636F6E666967006F766572647269B7
:10213400766500636C6F636B636F6E666967000A34
:1021440050726F636573736F722072756E6E696E11
:10215400672E2E2E0A0A00464C4153483A20307806
:1021640025303878202D2D203078253038782028D7
:1021740025696B42290A0052414D3A2020203078CB
:1021840025303878202D2D203078253038782028B7
:1021940025696B42290A000A50726F636573736F75
:1021A4007220636C6F636B207370656564730A3DA2
:1021B4003D3D3D3D3D3D3D3D3D3D3D3D3D3D3D3D4B
:1021C4003D3D3D3D3D0A48434C4B3A202020256986
:1021D4000A50434C4B313A202025690A50434C4B5A
:1021E400323A202025690A537973436C6B3A2025CF
:1021F400690A000A0A6170702073746172740A0AB1
:10220400000A737461727475702066696E6973680C
:1022140065640A0061646320696E69742E2E0A0085
:1022240061646320696E6974206572720A00616476
:1022340063206368616E6E656C20636F6E662065F3
:1022440072720A0061646320696E69742E2E204FD5
:102254004B0A00616463206572726F722025303806
:10226400780A0073756D3A253664202020206D6944
:102274006E3A253464202020206D61783A25346438
:10228400202020206176673A2534642020202066AF
:102294007265713A256420256425250A000A2A2AD4
:1022A4002A2A2048414C54202A2A2A2A0A0030315A
:1022B400323334353637383941424344454647484A
:1022C400494A4B4C4D4E4F50515254535556575802
:1022D400595A003031323334353637383961626314
:1022E4006465666768696A6B6C6D6E6F7071727332
:1022F4007475767778797A0025303278002020203A
:1023040000256300200A0D090030310030313233DA
:102314003435363738396162636465664142434413
:0E232400454600303132333435363738390013
:042332000104020898
:0D23360000101010041010100210101008FC
:102343000000000001020304010203040607080958
:082358000024F4000000000065
:040000050800029954
:00000001FF
